:1000000012C02CC02BC02AC029C028C027C026C0BF
:1000100025C024C023C0E7C116C220C01FC01EC017
:100020001DC01CC01BC011241FBECFE5D4E0DEBF25
:10003000CDBF10E0A0E6B0E0E0EBF2E102C0059039
:100040000D92A23AB107D9F712E0A2EAB0E001C0DE
:100050001D92A13FB107E1F753D228C9D1CFEF924A
:10006000FF920F931F93AA2797FDA095BA2FBC016B
:10007000CD0133D52AE037ED43E250E4BAD520E094
:1000800030EC4FE754E48ED47B018C0163E373E3DF
:1000900083E590E4A801970120D49B01AC01C8013D
:1000A000B70180D420E030E04AE754E4A2D5E2D49E
:1000B000CB011F910F91FF90EF900895AA2797FD14
:1000C000A095BA2FBC01CD0108D520E030EC4BE45F
:1000D00054E403D420E030E040EF50E463D40895CA
:1000E0000F931F93CF93DF938B019C01EA01E1ED06
:1000F000F0E040E050E00FC0C80181709070892BA3
:1001000011F480E301C081E381934F5F5F4F369527
:10011000279517950795011511052105310561F7FB
:10012000CE01841B950BAC01DE01A053BF4FE1EB68
:10013000F0E020E030E090E30BC02417350718F022
:100140008C91808301C090832F5F3F4F1197319630
:100150002C173D0790F3CF54DF4F188281EB90E0CE
:10016000DF91CF911F910F910895929A40916E0067
:1001700050916F00849FF001859FF00D949FF00DCA
:10018000112480E090E032E004C0232F2A95F1F79B
:1001900001968E179F07CCF39298469FF001479FD8
:1001A000F00D569FF00D112480E090E032E004C085
:1001B000232F2A95F1F701968E179F07CCF3089508
:1001C00080916C0090916D00019729F481E090E09E
:1001D00063E070E0CADF80916C0090916D0002973F
:1001E00029F481E090E062E070E0BFDF0895809143
:1001F0006C0090916D00019729F483E090E061E03C
:1002000070E0B3DF80916C0090916D00029729F44B
:1002100082E090E061E070E0A8DF089581E090E086
:1002200063E070E0A2DF81E090E063E070E09DDFDA
:10023000089583E090E061E070E097DF83E090E074
:1002400061E070E092DF089581E090E063E070E0AB
:100250008CDF83E090E061E070E087DF08958091BB
:100260006C0090916D00019729F481E090E06FE1BE
:1002700070E07BDF80916C0090916D00029729F413
:1002800081E090E06AE070E070DF08950F931F93C3
:10029000DF93CF93CDB7DEB72C970FB6F894DEBFC0
:1002A0000FBECDBF9C01042FFE013196A6E9B0E040
:1002B0008CE00D9001928150E1F7CB0101970597F9
:1002C00008F04FC0E4EAF0E081E090E010E346E49B
:1002D000D9015C91503311F4408304C0513309F0CB
:1002E00040C01083DC0101962F5F3F4F319686306E
:1002F000910571F7660F771F6C0F7D1FFB01618100
:100300007281AD014C555F4F20E030E0FB01E20F00
:10031000F31F8081FA018193AF012F5F3F4F25309A
:100320003105A1F79D0127553F4FFD013696BD01CF
:10033000695F7F4F002339F080E3D9018C93EC553E
:10034000FF4F86E406C086E4D9018C93EC55FF4F3D
:1003500080E380836C557F4FFB01108224EA30E0FC
:1003600002C020E030E0C9012C960FB6F894DEBF41
:100370000FBECDBFCF91DF911F910F910895EF92E6
:10038000FF920F931F93CF93DF937C0100E010E067
:1003900012C0803309F442DF8881863409F454DFC7
:1003A0008881813309F445DF21968881882389F784
:1003B00056DF0F5F1F4F80916A0090916B00081706
:1003C000190714F4E701F1CFDF91CF911F910F913D
:1003D000FF90EF90089541E059DFD1DF089540E0AC
:1003E00055DFCDDF08951F920F920FB60F921124A3
:1003F0008F939F93EF93FF939CB18091A2008823EA
:10040000C9F48091A3009D3059F4E82FF0E0EF503B
:10041000FE4F108281E08093A2001092A3000AC0D8
:100420008F3F41F0E82FF0E0EF50FE4F90838F5F59
:100430008093A300FF91EF919F918F910F900FBE3A
:100440000F901F9018951F920F920FB60F921124C4
:100450008F939F93EF93FF93E0917000F091710061
:100460008191F0937100E0937000882359F45598BE
:1004700081EF90E0909371008093700081E0809311
:10048000690005C08CB980E29EE40197F1F7FF9105
:10049000EF919F918F910F900FBE0F901F90189525
:1004A0009C018091A200813031F4C90161EF71E0BB
:1004B0000ED41092A2000895BC0180916900813091
:1004C00031F481EF90E003D410926900559A0895B9
:1004D000DF93CF9300D000D0CDB7DEB78FE4898310
:1004E0008BE48A838AE08B838DE08C83CE01019636
:1004F000E3DF0F900F900F900F90CF91DF91089551
:100500004F925F926F927F929F92AF92BF92CF92E3
:10051000DF92EF92FF920F931F93DF93CF93CDB7AC
:10052000DEB7C154D0400FB6F894DEBF0FBECDBFCA
:100530008FEF87BB14BA15BA8A9A17B887B1806C47
:1005400087B986B1876886B980E197E297BD86BD95
:100550008FB582688FBD8EB58A618EBD84E195E0CE
:100560009BBD8ABD10BC83E389B988E98AB98EE84E
:1005700080BD789471E0C72ED12C01E010E07E019F
:100580000894E11CF11C68ECA62EB12C5EE4952EBB
:1005900040E2642E4EE4742E31E4432E512C4C0E76
:1005A0005D1EC114D10469F08AB59BB50A969BBD46
:1005B0008ABD8AB59BB5CC24DD24805D974070F45C
:1005C0000AC08AB59BB508979BBD8ABD8AB59BB505
:1005D000893C910518F421E0C22ED12C8091A20013
:1005E000813021F022961FAE229706C0C70158DF46
:1005F00041E022964FAF22978981803509F067C08C
:100600008A81823401F58C819B81813369F427B31F
:10061000892F90E0C097A80102C0440F551F8A950A
:10062000E2F7242B27BB52C027B3892F90E0C09755
:10063000A80102C0440F551F8A95E2F7CA018095B0
:10064000822387BB43C0833401F58C819B81813336
:1006500069F424B3892F90E0C097A80102C0440F29
:10066000551F8A95E2F7242B24BB30C024B3892F71
:1006700090E0C097A80102C0440F551F8A95E2F789
:10068000CA018095822384BB21C08434F9F48C8113
:100690009B81813369F421B3892F90E0C097A80131
:1006A00002C0440F551F8A95E2F7242B21BB0EC0D0
:1006B00021B3892F90E0C097A80102C0440F551FB5
:1006C0008A95E2F7CA018095822381BB01DF898187
:1006D000833509F067C08A81823401F58C819B8162
:1006E000813369F428B3892F90E0C097A80102C034
:1006F000440F551F8A95E2F7242B28BB52C028B31C
:10070000892F90E0C097A80102C0440F551F8A9519
:10071000E2F7CA018095822388BB43C0833401F588
:100720008C819B81813369F425B3892F90E0C09738
:10073000A80102C0440F551F8A95E2F7242B25BB60
:1007400030C025B3892F90E0C097A80102C0440FA4
:10075000551F8A95E2F7CA018095822385BB21C087
:100760008434F9F48C819B81813369F422B3892F1D
:1007700090E0C097A80102C0440F551F8A95E2F788
:10078000242B22BB0EC022B3892F90E0C097A80172
:1007900002C0440F551F8A95E2F7CA018095822353
:1007A00082BB96DE89818734C1F58A818334A9F5BD
:1007B00017B887B1806C87B98B81813311F4389A6F
:1007C00012C0823311F4399A0EC0833319F487B101
:1007D000836008C0843311F43A9A05C0853319F454
:1007E00087B1856087B9369A3699FECF84B195B1C5
:1007F000B7014AE050E072D2C70160E670E05CD217
:1008000088EE93E0F5013197F1F70197D9F7C70129
:1008100053DE998222961FAE229789818C3409F08B
:1008200042C08B818133E9F46A8170E0605370408B
:1008300083E690E0D0DD88EE93E0F5013197F1F7A3
:100840000197D9F76A8170E06053704083E690E0C9
:10085000C2DD88EE93E0F5013197F1F70197D9F702
:100860001EC08033E1F46A8170E06053704083E61B
:1008700090E0B5DD88EE93E0F5013197F1F701974F
:10088000D9F76A8170E06053704083E690E0A7DD9D
:1008900088EE93E0F5013197F1F70197D9F7998246
:1008A00022961FAE2297C3010197F1F7809169004C
:1008B000813061F422965FAD2297513039F4C7013F
:1008C00060E670E0F9D1C701F7DD9982F701119276
:1008D000E415F50509F465CEFACF5058BB27AA27D1
:1008E0000ED04DC13ED130F043D120F031F49F3FC6
:1008F00011F41EF433C10EF4E095E7FB29C1E92F92
:100900004FD180F3BA17620773078407950718F071
:1009100071F49EF567C10EF4E0950B2EBA2FA02D51
:100920000B01B90190010C01CA01A0011124FF279C
:10093000591B99F0593F50F4503E68F11A16F04097
:10094000A22F232F342F4427585FF3CF4695379596
:100950002795A795F0405395C9F77EF41F16BA0B5B
:10096000620B730B840BBAF09150A1F0FF0FBB1F09
:10097000661F771F881FC2F70EC0BA0F621F731F52
:10098000841F48F4879577956795B795F7959E3FAF
:1009900008F0B3CF9395880F08F09927EE0F97953D
:1009A000879508950CD0EBC0E3D040F0DAD030F05A
:1009B00021F45F3F19F0CCC0511115C1CFC0F0D068
:1009C00098F39923C9F35523B1F3951B550BBB2716
:1009D000AA2762177307840738F09F5F5F4F220FC3
:1009E000331F441FAA1FA9F333D00E2E3AF0E0E8BC
:1009F00030D091505040E695001CCAF729D0FE2F08
:100A000027D0660F771F881FBB1F26173707480799
:100A1000AB07B0E809F0BB0B802DBF01FF2793584F
:100A20005F4F2AF09E3F510568F092C0DCC05F3FE7
:100A3000ECF3983EDCF3869577956795B795F79537
:100A40009F5FC9F7880F911D9695879597F908952F
:100A5000E1E0660F771F881FBB1F621773078407CB
:100A6000BA0720F0621B730B840BBA0BEE1F88F7DA
:100A7000E095089504D06894B111B5C0089598D058
:100A800088F09F5790F0B92F9927B751A0F0D1F077
:100A9000660F771F881F991F1AF0BA95C9F712C001
:100AA000B13081F09FD0B1E008959CC0672F782FBE
:100AB0008827B85F39F0B93FCCF38695779567956D
:100AC000B395D9F73EF490958095709561957F4FD9
:100AD0008F4F9F4F0895E89409C097FB3EF490957F
:100AE0008095709561957F4F8F4F9F4F9923A9F007
:100AF000F92F96E9BB279395F69587957795679596
:100B0000B795F111F8CFFAF4BB0F11F460FF1BC0D9
:100B10006F5F7F4F8F4F9F4F16C0882311F096E96C
:100B200011C0772321F09EE8872F762F05C066231A
:100B300071F096E8862F70E060E02AF09A95660FD3
:100B4000771F881FDAF7880F9695879597F908958C
:100B500097F99F6780E870E060E008959FEF80EC70
:100B6000089500240A941616170618060906089513
:100B700000240A9412161306140605060895092E79
:100B80000394000C11F4882352F0BB0F40F4BF2BE8
:100B900011F460FF04C06F5F7F4F8F4F9F4F089528
:100BA00057FD9058440F551F59F05F3F71F047951E
:100BB000880F97FB991F61F09F3F79F08795089503
:100BC000121613061406551FF2CF4695F1DF08C022
:100BD000161617061806991FF1CF8695710561053F
:100BE00008940895E894BB2766277727CB0197F9E7
:100BF00008950BD0C4CFB5DF28F0BADF18F09523E5
:100C000009F0A6CFABCF1124EECFCADFA0F3959F9A
:100C1000D1F3950F50E0551F629FF001729FBB27E3
:100C2000F00DB11D639FAA27F00DB11DAA1F649F8F
:100C30006627B00DA11D661F829F2227B00DA11D42
:100C4000621F739FB00DA11D621F839FA00D611DC8
:100C5000221F749F3327A00D611D231F849F600DE9
:100C6000211D822F762F6A2F11249F5750408AF022
:100C7000E1F088234AF0EE0FFF1FBB1F661F771FAE
:100C8000881F91505040A9F79E3F510570F060CFEA
:100C9000AACF5F3FECF3983EDCF386957795679596
:100CA000B795F795E7959F5FC1F7FE2B880F911DCC
:100CB0009695879597F90895FB01DC010D9000202A
:100CC000E9F7119701900D920020E1F70895FB01DB
:100CD000DC0101900D920020E1F70895FB019F01D6
:100CE000E8944230BCF04532ACF44A3029F497FB2A
:100CF0001EF4909581959F4F642F77278CD2805D4D
:100D00008A330CF0895D8193CB010097A9F716F423
:100D10005DE251931082C901E4C1ABE0B0E0E2E9C9
:100D2000F6E08DC23C012B015A01FC0117821682AC
:100D3000838181FD03C06FEF7FEFB9C19AE0892EF7
:100D40001E010894211C311CF3012381F20123FDB3
:100D5000859123FF81912F01882309F4A5C1853254
:100D600039F423FD859123FF81912F01853221F4F0
:100D700090E0B301C6D1E8CF982FFF24EE24992448
:100D8000FFE1FF15D0F09B3269F09C3228F49032DD
:100D900059F0933291F40EC09D3249F0903369F4CA
:100DA00041E024C052E0F52A84E0F82A28C098E007
:100DB000F92A25C0E0E1FE2A22C0F7FC29C0892FCC
:100DC00080538A3070F4F6FE05C0989C902C112454
:100DD000980E15C0E89CE02C1124E80EF0E2FF2AE2
:100DE0000EC09E3229F4F6FC5FC140E4F42A07C02D
:100DF0009C3619F450E8F52A02C0983649F4F201FD
:100E000023FD959123FF91912F01992309F0B8CFEC
:100E1000892F8554833018F08052833038F444E0B1
:100E200050E0A40EB51E5FE359830FC0933631F036
:100E3000933779F0933509F052C01FC0F5018081D6
:100E4000898342E050E0A40EB51E610101E010E08C
:100E500011C0F501C080D180F6FC03C06FEF7FEFB9
:100E600002C0692D70E042E050E0A40EB51EC6013C
:100E70002DD18C015FE7F52213C0F501C080D18030
:100E8000F6FC03C06FEF7FEF02C0692D70E042E017
:100E900050E0A40EB51EC6010ED18C0150E8F52A13
:100EA000F3FE06C018C080E290E0B3012AD1EA94B4
:100EB0008E2D90E008171907B0F30DC0F601F7FC6E
:100EC0008591F7FE81916F0190E0B3011AD1E11095
:100ED000EA94015010400115110581F7E2C09436E3
:100EE00011F0993661F5F7FE08C0F50120813181D6
:100EF0004281538184E090E00AC0F50180819181B4
:100F00009C01442737FD4095542F82E090E0A80EC5
:100F1000B91E9FE6F92257FF09C0509540953095BC
:100F200021953F4F4F4F5F4FE0E8FE2ACA01B901BC
:100F3000A1012AE030E011D1D82ED2183FC0953758
:100F400029F41F2D1F7E2AE030E01DC01F2D197FC0
:100F50009F3661F0903720F4983509F0A5C00FC096
:100F6000903739F0983709F09FC004C028E030E08E
:100F70000AC0106114FD146020E130E004C014FDCB
:100F8000166020E132E017FF08C0F5016081718131
:100F90008281938144E050E008C0F5018081918115
:100FA000BC0180E090E042E050E0A40EB51EA1013B
:100FB000D4D0D82ED2188FE7F82EF122F6FE0BC02F
:100FC0005EEFF522D91438F4F4FE07C0F2FC05C038
:100FD0008FEEF82202C01D2D01C0192DF4FE0DC0A8
:100FE000FE01ED0DF11D8081803319F499EEF92297
:100FF00008C01F5FF2FE05C003C08F2D867809F080
:101000001F5F0F2DF3FC13C0F0FE0EC01E1510F075
:101010009D2C0AC09D2C9E0C911A1E2D05C080E2AD
:1010200090E0B3016ED01F5F1E15C8F304C01E15FB
:1010300010F4E11A01C0EE2404FF0EC080E390E03A
:10104000B3015FD002FF1BC001FD03C088E790E041
:101050000EC088E590E00BC0802F867881F001FFFC
:1010600002C08BE201C080E2F7FC8DE290E0B301A8
:1010700048D005C080E390E0B30143D09A94D914DE
:10108000C8F3DA94F101ED0DF11D808190E0B30118
:1010900038D0DD20B1F705C080E290E0B30131D057
:1010A000EA94EE20C9F750CEF30166817781CB0137
:1010B0002B96E2E1E0C0FC01059061507040011008
:1010C000D8F7809590958E0F9F1F0895FC01615071
:1010D000704001900110D8F7809590958E0F9F1F5A
:1010E0000895DC01FC01672F71917723E1F73297B6
:1010F00004C07C916D9370836291AE17BF07C8F3F3
:1011000008950F931F93CF93DF938C01EB018B8195
:1011100081FF1BC082FF0DC02E813F818C819D818C
:101120002817390764F4E881F9810193F983E8838A
:1011300006C0E885F985802F0995892B31F48E81C9
:101140009F8101969F838E8302C00FEF1FEFC8011E
:10115000DF91CF911F910F910895FA01AA272830AE
:1011600051F1203181F1E8946F936E7F6E5F7F4F74
:101170008F4F9F4FAF4FB1E03ED0B4E03CD0670FF0
:10118000781F891F9A1FA11D680F791F8A1F911D43
:10119000A11D6A0F711D811D911DA11D20D009F493
:1011A00068943F912AE0269F11243019305D3193D5
:1011B000DEF6CF010895462F4770405D4193B3E0BE
:1011C0000FD0C9F7F6CF462F4F70405D4A3318F065
:1011D000495D31FD4052419302D0A9F7EACFB4E016
:1011E000A6959795879577956795BA95C9F70097CE
:1011F0006105710508959B01AC010A2E069457956F
:10120000479537952795BA95C9F7620F731F841FC5
:10121000951FA01D0895AA1BBB1B51E107C0AA1F63
:10122000BB1FA617B70710F0A61BB70B881F991F87
:101230005A95A9F780959095BC01CD0108952F92FC
:101240003F924F925F926F927F928F929F92AF9256
:10125000BF92CF92DF92EF92FF920F931F93CF93A3
:10126000DF93CDB7DEB7CA1BDB0B0FB6F894DEBF3A
:101270000FBECDBF09942A88398848885F846E8460
:101280007D848C849B84AA84B984C884DF80EE80AA
:10129000FD800C811B81AA81B981CE0FD11D0FB6B3
:1012A000F894DEBF0FBECDBFED010895F894FFCFD7
:1012B0000A0D00313131313100010A0001005E01B7
:1012C000F100464646464600304646464600463011
:1012D00046464600464630464600464646304600AC
:1012E000464646463000720078007E0084008A0040
:0212F00090006C
:00000001FF
