:100000008FC0A9C0A8C0A7C0A6C0A5C0A4C0A3C0D7
:10001000A2C0A1C0A0C0E1C010C19DC09CC09BC037
:100020009AC099C098C000407A10F35A00A0724E4E
:1000300018090010A5D4E80000E87648170000E48D
:100040000B54020000CA9A3B000000E1F5050000D5
:1000500080969800000040420F000000A08601003A
:100060000000102700000000E8030000000064000A
:10007000000000000A000000000001000000000075
:100080002C76D888DC674F0823DFC1DFAE59E1B199
:10009000B796E5E3E453C63AE651997696E8E6C2A8
:1000A0008426EB898C9B62ED407C6FFCEFBC9C9FAF
:1000B00040F2BAA56FA5F490055A2AF75C936B6CD1
:1000C000F9676DC11BFCE0E40D47FEF520E6B500C5
:1000D000D0ED902E0300943577050080841E080033
:1000E00000204E0A000000C80C333333330F986EE3
:1000F00012831141EF8D2114893BE65516CFFEE6A0
:10010000DB18D1844B381BF77C1D901DA4BBE42465
:10011000203284725E228100C9F124ECA1E53D27E2
:1001200011241FBECFE5D4E0DEBFCDBF10E0A0E6B6
:10013000B0E0E6EEF1E102C005900D92A636B107FF
:10014000D9F712E0A6E6B0E001C01D92A836B107CB
:10015000E1F7D0D046C854CFEF92FF920F931F9390
:10016000AA2797FDA095BA2FBC01CD013DD22AE068
:1001700037ED43E250E4C4D220E030EC4FE754E4E2
:1001800098D17B018C0163E373E383E590E4A801DC
:1001900097012AD19B01AC01C801B7018AD120E0A7
:1001A00030E04AE754E4ACD2ECD1CB011F910F917F
:1001B000FF90EF900895AA2797FDA095BA2FBC0154
:1001C000CD0112D220E030EC4BE454E40DD120E01C
:1001D00030E040EF50E46DD108951F920F920FB6BA
:1001E0000F9211248F939F93EF93FF939CB1809173
:1001F00066008823C9F4809167009D3059F4E82F88
:10020000F0E0E859FE4F108281E080936600109282
:1002100067000AC08F3F41F0E82FF0E0E859FE4F39
:1002200090838F5F80936700FF91EF919F918F91F3
:100230000F900FBE0F901F9018951F920F920FB640
:100240000F9211248F939F93EF93FF93E09164009B
:10025000F09165008191F0936500E093640088233C
:1002600059F4559888E690E0909365008093640077
:1002700081E08093630005C08CB980E29EE4019721
:10028000F1F7FF91EF919F918F910F900FBE0F901B
:100290001F9018959C0180916600813031F4C9014E
:1002A00068E671E0BBD2109266000895BC018091AF
:1002B0006300813031F488E690E0B0D210926300A0
:1002C000559A0895DF93CF9300D000D0CDB7DEB715
:1002D0008FE489838BE48A838AE08B838DE08C832F
:1002E000CE010196E3DF0F900F900F900F90CF910A
:1002F000DF9108959F92AF92BF92CF92DF92EF92DB
:10030000FF920F931F93DF93CF93CDB7DEB7C05407
:10031000D0400FB6F894DEBF0FBECDBF8FEF87BBC6
:1003200014BA15BA17B887B1806C87B986B18768D7
:1003300086B910BC83E389B988E98AB98EE880BDA3
:10034000789420E07E010894E11CF11C30E2A32E99
:100350003EE4B32E98ECC92ED12C8EE4982E8091D9
:100360006600813029F4222311F4C70193DF21E0D4
:100370008981833529F48A81813389F7AD9A06C052
:10038000853539F48A81813351F7AD989BDF9982A5
:1003900029C08734B9F4369A3699FECF84B195B125
:1003A000DBDE09DF45E022E087010DD2C70160E610
:1003B00070E029D288EE93E0F6013197F1F70197CA
:1003C000D9F70EC0C5010197F1F780916300813024
:1003D00031F6213009F0C3CFC70160E670E013D2D7
:1003E000C70164DF20E0BBCF5058BB27AA270ED03F
:1003F0004DC13ED130F043D120F031F49F3F11F494
:100400001EF433C10EF4E095E7FB29C1E92F4FD16B
:1004100080F3BA17620773078407950718F071F421
:100420009EF567C10EF4E0950B2EBA2FA02D0B019F
:10043000B90190010C01CA01A0011124FF27591B29
:1004400099F0593F50F4503E68F11A16F040A22F2F
:10045000232F342F4427585FF3CF469537952795A0
:10046000A795F0405395C9F77EF41F16BA0B620B9F
:10047000730B840BBAF09150A1F0FF0FBB1F661FE6
:10048000771F881FC2F70EC0BA0F621F731F841F29
:1004900048F4879577956795B795F7959E3F08F04F
:1004A000B3CF9395880F08F09927EE0F979587950E
:1004B00008950CD0EBC0E3D040F0DAD030F021F456
:1004C0005F3F19F0CCC0511115C1CFC0F0D098F3E7
:1004D0009923C9F35523B1F3951B550BBB27AA27C5
:1004E00062177307840738F09F5F5F4F220F331F37
:1004F000441FAA1FA9F333D00E2E3AF0E0E830D003
:1005000091505040E695001CCAF729D0FE2F27D005
:10051000660F771F881FBB1F261737074807AB07D3
:10052000B0E809F0BB0B802DBF01FF2793585F4F48
:100530002AF09E3F510568F092C0DCC05F3FECF3AB
:10054000983EDCF3869577956795B795F7959F5F0D
:10055000C9F7880F911D9695879597F90895E1E061
:10056000660F771F881FBB1F621773078407BA07C0
:1005700020F0621B730B840BBA0BEE1F88F7E0951B
:10058000089504D06894B111B5C0089598D088F04A
:100590009F5790F0B92F9927B751A0F0D1F0660F6F
:1005A000771F881F991F1AF0BA95C9F712C0B1308A
:1005B00081F09FD0B1E008959CC0672F782F8827E5
:1005C000B85F39F0B93FCCF3869577956795B395C9
:1005D000D9F73EF490958095709561957F4F8F4F38
:1005E0009F4F0895E89409C097FB3EF4909580953D
:1005F000709561957F4F8F4F9F4F9923A9F0F92FE9
:1006000096E9BB279395F695879577956795B79566
:10061000F111F8CFFAF4BB0F11F460FF1BC06F5F4C
:100620007F4F8F4F9F4F16C0882311F096E911C05E
:10063000772321F09EE8872F762F05C0662371F07F
:1006400096E8862F70E060E02AF09A95660F771F93
:10065000881FDAF7880F9695879597F9089597F987
:100660009F6780E870E060E008959FEF80EC089558
:1006700000240A9416161706180609060895002481
:100680000A9412161306140605060895092E0394FB
:10069000000C11F4882352F0BB0F40F4BF2B11F46F
:1006A00060FF04C06F5F7F4F8F4F9F4F089557FDCE
:1006B0009058440F551F59F05F3F71F04795880FD0
:1006C00097FB991F61F09F3F79F087950895121667
:1006D00013061406551FF2CF4695F1DF08C0161613
:1006E00017061806991FF1CF8695710561050894C4
:1006F0000895E894BB2766277727CB0197F90895DB
:100700000BD0C4CFB5DF28F0BADF18F0952309F07D
:10071000A6CFABCF1124EECFCADFA0F3959FD1F3C4
:10072000950F50E0551F629FF001729FBB27F00D9F
:10073000B11D639FAA27F00DB11DAA1F649F6627F4
:10074000B00DA11D661F829F2227B00DA11D621F43
:10075000739FB00DA11D621F839FA00D611D221FFD
:10076000749F3327A00D611D231F849F600D211DE1
:10077000822F762F6A2F11249F5750408AF0E1F084
:1007800088234AF0EE0FFF1FBB1F661F771F881FCD
:1007900091505040A9F79E3F510570F060CFAACF0D
:1007A0005F3FECF3983EDCF3869577956795B795B8
:1007B000F795E7959F5FC1F7FE2B880F911D9695E2
:1007C000879597F90895EF92FF920F931F93F22F59
:1007D000F02E47FD02C0E4E001C0E4E1242F3327FE
:1007E00027FD309537FF03C0309521953F4F4F2DA2
:1007F000512F0F2FEE2EE7D18F2D912F1F910F919B
:10080000FF90EF900895FB01DC010D900020E9F7C7
:10081000119701900D920020E1F70895FB01DC0192
:1008200001900D920020E1F70895ABE0B0E0EAE11D
:10083000F4E0A0C43C012B015A01FC01178216828E
:10084000838181FD03C06FEF7FEFB9C19AE0892EEC
:100850001E010894211C311CF3012381F20123FDA8
:10086000859123FF81912F01882309F4A5C1853249
:1008700039F423FD859123FF81912F01853221F4E5
:1008800090E0B301EDD3E8CF982FFF24EE24992414
:10089000FFE1FF15D0F09B3269F09C3228F49032D2
:1008A00059F0933291F40EC09D3249F0903369F4BF
:1008B00041E024C052E0F52A84E0F82A28C098E0FC
:1008C000F92A25C0E0E1FE2A22C0F7FC29C0892FC1
:1008D00080538A3070F4F6FE05C0989C902C112449
:1008E000980E15C0E89CE02C1124E80EF0E2FF2AD7
:1008F0000EC09E3229F4F6FC5FC140E4F42A07C022
:100900009C3619F450E8F52A02C0983649F4F201F1
:1009100023FD959123FF91912F01992309F0B8CFE1
:10092000892F8554833018F08052833038F444E0A6
:1009300050E0A40EB51E5FE359830FC0933631F02B
:10094000933779F0933509F052C01FC0F5018081CB
:10095000898342E050E0A40EB51E610101E010E081
:1009600011C0F501C080D180F6FC03C06FEF7FEFAE
:1009700002C0692D70E042E050E0A40EB51EC60131
:1009800064D38C015FE7F52213C0F501C080D180EC
:10099000F6FC03C06FEF7FEF02C0692D70E042E00C
:1009A00050E0A40EB51EC60145D38C0150E8F52ACF
:1009B000F3FE06C018C080E290E0B30151D3EA9480
:1009C0008E2D90E008171907B0F30DC0F601F7FC63
:1009D0008591F7FE81916F0190E0B30141D3E11061
:1009E000EA94015010400115110581F7E2C09436D8
:1009F00011F0993661F5F7FE08C0F50120813181CB
:100A00004281538184E090E00AC0F50180819181A8
:100A10009C01442737FD4095542F82E090E0A80EBA
:100A2000B91E9FE6F92257FF09C0509540953095B1
:100A300021953F4F4F4F5F4FE0E8FE2ACA01B901B1
:100A4000A1012AE030E038D3D82ED2183FC0953724
:100A500029F41F2D1F7E2AE030E01DC01F2D197FB5
:100A60009F3661F0903720F4983509F0A5C00FC08B
:100A7000903739F0983709F09FC004C028E030E083
:100A80000AC0106114FD146020E130E004C014FDC0
:100A9000166020E132E017FF08C0F5016081718126
:100AA0008281938144E050E008C0F501808191810A
:100AB000BC0180E090E042E050E0A40EB51EA10130
:100AC000FBD2D82ED2188FE7F82EF122F6FE0BC0FB
:100AD0005EEFF522D91438F4F4FE07C0F2FC05C02D
:100AE0008FEEF82202C01D2D01C0192DF4FE0DC09D
:100AF000FE01ED0DF11D8081803319F499EEF9228C
:100B000008C01F5FF2FE05C003C08F2D867809F074
:100B10001F5F0F2DF3FC13C0F0FE0EC01E1510F06A
:100B20009D2C0AC09D2C9E0C911A1E2D05C080E2A2
:100B300090E0B30195D21F5F1E15C8F304C01E15C7
:100B400010F4E11A01C0EE2404FF0EC080E390E02F
:100B5000B30186D202FF1BC001FD03C088E790E00D
:100B60000EC088E590E00BC0802F867881F001FFF1
:100B700002C08BE201C080E2F7FC8DE290E0B3019D
:100B80006FD205C080E390E0B3016AD29A94D91481
:100B9000C8F3DA94F101ED0DF11D808190E0B3010D
:100BA0005FD2DD20B1F705C080E290E0B30158D2FA
:100BB000EA94EE20C9F750CEF30166817781CB012C
:100BC0002B96E2E1F3C2A9E0B0E0E8EEF5E0D6C290
:100BD0006A01122FA02EBE2C2BE3201718F42CE351
:100BE000922E02C0902E9394AE014F5F5F4F27E08C
:100BF000092D48D1BC018981E82EFF24C7018970E5
:100C00009070019711F4ADE209C0B1FE02C0ABE2F1
:100C100005C0B0FC02C0A0E001C0A0E2E3FE3BC002
:100C2000AA2311F423E001C024E0211710F020E0F2
:100C300002C0121B212FEB2CB4FE02C0322F0AC0BF
:100C4000F601322F80E202C0819331503323E1F765
:100C5000C20ED11CAA2319F0F601A1936F01F6016F
:100C60003196E2FE05C09EE4D6019C9381E404C067
:100C70009EE6D6019C9381E611968C9391833296E1
:100C8000DF01832F90E202C09D9381508823E1F71A
:100C9000E30FF11D40C0E2FE42C0AA2311F423E09D
:100CA00001C024E0211710F020E002C0121B212F08
:100CB000EB2CB4FE02C0922F0AC0F601922F80E204
:100CC00002C0819391509923E1F7C20ED11CAA234F
:100CD00019F0F601A1936F01F6013196E2FE08C00A
:100CE00089E4D6018C938EE411968C9386E407C038
:100CF00089E6D6018C938EE611968C9386E68183E5
:100D00003296DF01892F20E202C02D938150882383
:100D1000E1F7E90FF11D10822EEF3FEFAFC016167D
:100D200017061CF041E050E003C0AB014F5F5F4F7E
:100D3000AA2019F480E090E003C08A2D90E001968B
:100D400020E030E0AA2311F021E030E0240F351F2D
:100D5000280F391F812F90E02817390714F020E061
:100D600002C0121B212F4B2D50E0CA0180719070E0
:100D7000B4FC0DC0B3FC0BC0F601322F40E202C040
:100D8000419331503323E1F7C20ED11C01C0322F01
:100D9000AA2319F0F601A1936F01892B11F0132FEB
:100DA0000AC0F601132F80E302C081931150112372
:100DB000E1F7C30ED11C092D060FBA8090E1892EF0
:100DC000912C8E209F20E4FE04C0F1E3BF1609F4AD
:100DD0000150101614F001E003C0093008F008E0DB
:100DE0009B0177FF02C020E030E0CB010196821B1F
:100DF000930BFE013196E80FF91F8EE2F82E3B01AE
:100E0000601A71088A2D90E044275527481B590B1A
:100E10008FEF2F3F380719F4D601FD926D0162174D
:100E200073072CF06216730614F4808101C080E30E
:100E30002150304031962417350724F0D6018D9388
:100E40006D01E6CF2617370749F4B5E3BB1528F047
:100E5000BB1621F48114910409F481E3F601819316
:100E6000D601812F90E202C09C9381501196882375
:100E7000D9F7E10FF11D108220E030E0C901299679
:100E8000EEE098C1283008F027E03327DA01990F07
:100E9000311D87FD916000966105710539F432605E
:100EA0002E5F3D9330E32A95E1F708959F3F30F0A0
:100EB00080387105610509F03C5F3C5F3D939130DE
:100EC00008F08068911DDF93CF931F930F93FF92DB
:100ED000EF92192F987F9695E92F96959695E90FA1
:100EE000FF27E058FF4F99273327EE24FF24A7015F
:100EF000E70105900894079428F4360FE71EF81EC2
:100F0000491F511D660F771F881F991F0694A1F76F
:100F10000590079428F4E70EF81E491F561FC11DBF
:100F2000770F881F991F661F0694A1F705900794F5
:100F300028F4F80E491F561FC71FD11D880F991F8F
:100F4000661F771F0694A1F70590079420F4490FB8
:100F5000561FC71FD81F990F661F771F881F06943B
:100F6000A9F784911095177041F0D695C7955795BC
:100F70004795F794E7941A95C1F7E6E2F0E0689494
:100F80001590159135916591959105907FE2739536
:100F9000E118F10A430B560BC90BD009C0F7E10C5D
:100FA000F11E431F561FC91FD01D7EF4703311F46C
:100FB0008A95E6CFE894015030F0080F0AF4002734
:100FC000021708F4202F2395022F7A3328F079E3B3
:100FD0007D932A95E9F710C07D932A9589F60694AA
:100FE00097956795379517951794E118F10A430B74
:100FF000560BC90BD00998F023957E9173957A33DF
:1010000008F070E37C932013B8F77E9170617D93B4
:1010100030F0839571E37D9370E32A95E1F7112415
:10102000EF90FF900F911F91CF91DF91992787FD4E
:1010300090950895FC010590615070400110D8F71B
:10104000809590958E0F9F1F0895FC016150704010
:1010500001900110D8F7809590958E0F9F1F0895ED
:101060000F931F93CF93DF938C01EB018B8181FF53
:101070001BC082FF0DC02E813F818C819D8128176E
:10108000390764F4E881F9810193F983E88306C0A4
:10109000E885F985802F0995892B31F48E819F8110
:1010A00001969F838E8302C00FEF1FEFC801DF916F
:1010B000CF911F910F910895FA01AA27283051F17D
:1010C000203181F1E8946F936E7F6E5F7F4F8F4F79
:1010D0009F4FAF4FB1E03ED0B4E03CD0670F781FD8
:1010E000891F9A1FA11D680F791F8A1F911DA11DBD
:1010F0006A0F711D811D911DA11D20D009F46894F6
:101100003F912AE0269F11243019305D3193DEF69D
:10111000CF010895462F4770405D4193B3E00FD053
:10112000C9F7F6CF462F4F70405D4A3318F0495D3E
:1011300031FD4052419302D0A9F7EACFB4E0A69521
:101140009795879577956795BA95C9F70097610543
:10115000710508959B01AC010A2E06945795479599
:1011600037952795BA95C9F7620F731F841F951F8E
:10117000A01D08952F923F924F925F926F927F929F
:101180008F929F92AF92BF92CF92DF92EF92FF9297
:101190000F931F93CF93DF93CDB7DEB7CA1BDB0B43
:1011A0000FB6F894DEBF0FBECDBF09942A883988E8
:1011B00048885F846E847D848C849B84AA84B984EF
:1011C000C884DF80EE80FD800C811B81AA81B981FB
:1011D000CE0FD11D0FB6F894DEBF0FBECDBFED010F
:0611E0000895F894FFCF12
:0611E6000A0D0001680083
:00000001FF
