:100000000C946E000C9480000C9480000C94800082
:100010000C9480000C9480000C9480000C94800060
:100020000C9480000C9480000C9480000C94800050
:100030000C9480000C9480000C9480000C94800040
:100040000C9480000C9480000C9480000C94800030
:100050000C9480000C9480000C9480000C94800020
:100060000C9480000C9480000F0180961180FFB1E9
:1000700003012C2DB203012C2DB306012C2D012CD4
:100080002DB40107C003A20284C101C5C2020A0047
:10009000C3028A2AC4028AEEC5010E20003601C8B6
:1000A0003A0105022A040000007F2B040000009F93
:1000B00004E010021C07123732292D29252B3900A4
:1000C000010310E110031D07062E2C292D2E2E37BB
:1000D0003F0000021013800A2980640011241FBE13
:1000E000CFEFD8E0DEBFCDBF11E0A0E0B1E001C0AE
:1000F0001D92A830B107E1F70E94A9020C944E03AB
:100100000C94000020E030E008C0EFE1FEE43197FD
:10011000F1F700C000002B5F3F4F28173907A8F305
:100120000895259A239A229A2D982B982A9A8CB56D
:1001300080658CBD08958CB58F7B8CBD0895811131
:1001400003C08CB5806202C08CB58F7D8CBD0895D4
:100150009CB5937F982B9CBD08952CB5982F9370D8
:100160002C7F922B9CBD9DB582FB882780F99E7FBA
:10017000892B8DBD08955F988EBD0DB407FEFDCF10
:1001800008955F9A8EBD0DB407FEFDCF0895CF92FE
:10019000DF92EF92FF920F931F93CF93DF93EC01C7
:1001A0002196FC01D4902DC0FE0184910E94BB00D9
:1001B0007E01F2E0EF0EF11CFE013196C49180E861
:1001C000C82ECC22CF778701DC2FDE0D06C0F801C8
:1001D0000F5F1F4F84910E94C100D013F8CFC70159
:1001E0008C0F911DEC01CC2059F0FC0121968491DB
:1001F00090E08F3F910511F484EF91E00E9482001E
:10020000DA94D110D1CFDF91CF911F910F91FF9050
:10021000EF90DF90CF9008951092060110920401A4
:10022000579A569A0E94910080E00E94AD0081E0AA
:100230000E949F0080E00E94A8005E9A84EF91E0F7
:100240000E9482005E9884EF91E00E9482005E9A94
:1002500084EF91E00E94820088E690E00E94C7004F
:1002600083EA90E00E94C70080EB90E00C94C70006
:100270001F93CF93DF9300D01F92CDB7DEB7182F17
:100280008AE22B8349836A830E94BB0080E00E943C
:10029000C10080910401810F0E94C10080E00E9492
:1002A000C100809104014981840F0E94C1008BE24A
:1002B0000E94BB0080E00E94C100809106016A811B
:1002C000860F0E94C10080E00E94C100809106015B
:1002D0002B81820F0E94C1008CE20F900F900F9033
:1002E000DF91CF911F910C94BB001F93CF93DF93AD
:1002F0001F92CDB7DEB7182F2091050121504091F4
:100300000201415060E080E099830E9438015F9AC9
:100310002091050199810FC03091020109C09EBD55
:100320000DB407FEFDCF1EBD0DB407FEFDCF31504D
:100330003111F5CF21502111EFCF0F90DF91CF91E7
:100340001F9108951F93CF93DF931F92CDB7DEB710
:10035000142F97FD1FC02091020130E082179307F0
:10036000CCF477FD17C02091050130E062177307C8
:100370008CF4262F2F5F482F4F5F59830E9438013E
:100380005F9A59815EBD0DB407FEFDCF1EBD0DB451
:1003900007FEFDCF0F90DF91CF911F910895EF924F
:1003A000FF921F93CF93DF931F92CDB7DEB77A01F1
:1003B000122F4091020150E0841795072CF54091CF
:1003C000050150E064177507FCF4FB01EE0DFF1DFD
:1003D0004E175F071CF47A01E61AF70A262F215000
:1003E0002E0D482F39830E9438015F9A398108C049
:1003F0003EBD0DB407FEFDCF1EBD0DB407FEFDCF03
:1004000041E0E41AF108A0F70F90DF91CF911F911E
:10041000FF90EF900895EF92FF921F93CF93DF9399
:100420001F92CDB7DEB77A01122F4091020150E042
:10043000841795072CF5E0910501F0E06E177F0712
:10044000FCF4FC01EE0DFF1D4E175F071CF47A0152
:10045000E81AF90A482F41504E0D262F39830E9481
:1004600038015F9A398108C03EBD0DB407FEFDCF4B
:100470001EBD0DB407FEFDCF21E0E21AF108A0F782
:100480000F90DF91CF911F91FF90EF900895EF9221
:10049000FF920F931F93CF93DF93EA01790140916D
:1004A000020150E084179507B4F52091050130E072
:1004B0006217730784F5FC01EC0FFD1F4E175F07F1
:1004C0001CF4EA01C81BD90BAB014E0D5F1D2417AC
:1004D00035071CF47901E61AF70A262F21502E0D54
:1004E000482F41504C0F0E9438015F9A0FC01EBD2B
:1004F0000DB407FEFDCF0EBD0DB407FEFDCF019775
:1005000018161906A4F381E0E81AF1081E141F0456
:1005100014F4CE01F5CFDF91CF911F910F91FF9091
:10052000EF9008956C7F98E0699FB0011124469583
:1005300046954695642B382F387F20E0622B732B2D
:10054000CB010895882311F081E201C080E20C9470
:10055000BB0080E88093020180EA809305010E943D
:100560000C0180E090E00E94750180E098EF0E940D
:10057000750100E010E02AE030E04CE650E06AE06F
:1005800070E08AE090E00E9447022CE830E04AE008
:1005900050E06AE070E08BE390E00E9447028CE25A
:1005A00091E00E94820080EE97E00E9475012AE0AF
:1005B00030E04CE650E06AE070E08AE090E00E94B3
:1005C00047022CE830E04AE050E06AE070E08BE35C
:1005D00090E00E9447028CE291E00E9482008FE14D
:1005E00090E00E9475012AE030E04CE650E06AE0BD
:1005F00070E08AE090E00E9447022CE830E04AE098
:1006000050E06AE070E08BE390E00E9447028CE2E9
:1006100091E00E94820080E090E00E94750138EE37
:10062000E32E33E0F32EAA24A394B12CCC24C3945C
:10063000D12CC0E0D0E0C114D10411F0239601C048
:100640002297A114B10419F00E5F1F4F02C0015090
:1006500011094FEF5FEFB801CE010E94A201CF3721
:10066000D10514F0C12CD12C0F39110514F0A12C97
:10067000B12C1C161D061CF0CC24C394D12C1016D2
:1006800011061CF0AA24A394B12C82E090E00E94F1
:10069000820081E0E81AF10871F667CFF894FFCF85
:00000001FF
